:020000020000FC
:101E0000F89434B733FD17C00FE50DBF02E00EBFE5
:101E1000899A8898909A919A809903C01197E0F7CF
:101E20000AC0BCD03296B591A0E80A95F1F7809B24
:101E300004C01197D0F7A7D0E3C0AA27BB2705E0BD
:101E4000809BFECF8099FECF1196809BFDCF1A9785
:101E50000A95C1F73D013FEF259123232F3F61F004
:101E6000A0D0003021F00217B1F33327F5CF74D0A2
:101E700016F080D005C0DFCFEEEEFFE140E10ED0DE
:101E8000EE27FF279AD08DD034D0FACF5DD00EF454
:101E9000089584D075D019D081D040E474D00591D4
:101EA0008DD04A95D9F7089559D02EF0F6DFE03C51
:101EB000D9F7FD31C9F7089557D046D02EF005D097
:101EC000FD31D9F7EF3BC9F7089564D00990199017
:101ED00001E007BFE89532964250C1F7E054F04068
:101EE00005E007BFE89507B700FDFDCFE05CFF4FB9
:101EF0000895033689F2033449F20636A9F206340E
:101F0000D9F2053659F0053409F095CF1DD096F079
:101F100041D0099110D04A95E1F7F8CF1FD056F083
:101F200040E4EEBBFFBBE09A0DB348D031964A9532
:101F3000C1F7F4CF08950DBBEEBBFFBBE29AE19A67
:101F4000E199FECF3196089507D02EF023D029D005
:101F500009934A95E1F708950FE330D022D0E89431
:101F6000013209F06894089519D0E054F04008D087
:101F7000E1F70895F9DF0FEFDEDFF430E9F70ED077
:101F800003E007BFE89507B700FDFDCF01E107BFFC
:101F9000E8950895C0E6D0E040E40895E0ECFDE166
:101FA0000895909A8099FECF18E01DD017D006951D
:101FB000809900681A95D1F711C001E20FD00CD0BA
:101FC00018E000FD05D000FF07D006951A95C9F767
:101FD000899A8898919A02C0899A9198D3015197C9
:101FE0000000E8F70895D301B695A795F8CF5453AC
:101FF000425B21F01E930620E00EFF01AAAAFFFF1C
:00000001FF
